{
  "contractName": "TicTacToe",
  "abi": [
    {
      "constant": true,
      "inputs": [],
      "name": "player2",
      "outputs": [
        {
          "name": "",
          "type": "address"
        }
      ],
      "payable": false,
      "stateMutability": "view",
      "type": "function"
    },
    {
      "constant": true,
      "inputs": [],
      "name": "activePlayer",
      "outputs": [
        {
          "name": "",
          "type": "address"
        }
      ],
      "payable": false,
      "stateMutability": "view",
      "type": "function"
    },
    {
      "constant": true,
      "inputs": [],
      "name": "boardSize",
      "outputs": [
        {
          "name": "",
          "type": "uint8"
        }
      ],
      "payable": false,
      "stateMutability": "view",
      "type": "function"
    },
    {
      "constant": true,
      "inputs": [],
      "name": "gameCost",
      "outputs": [
        {
          "name": "",
          "type": "uint256"
        }
      ],
      "payable": false,
      "stateMutability": "view",
      "type": "function"
    },
    {
      "constant": true,
      "inputs": [],
      "name": "player1",
      "outputs": [
        {
          "name": "",
          "type": "address"
        }
      ],
      "payable": false,
      "stateMutability": "view",
      "type": "function"
    },
    {
      "inputs": [],
      "payable": true,
      "stateMutability": "payable",
      "type": "constructor"
    },
    {
      "anonymous": false,
      "inputs": [
        {
          "indexed": false,
          "name": "player",
          "type": "address"
        }
      ],
      "name": "PlayerJoined",
      "type": "event"
    },
    {
      "anonymous": false,
      "inputs": [
        {
          "indexed": false,
          "name": "player",
          "type": "address"
        }
      ],
      "name": "NextPlayer",
      "type": "event"
    },
    {
      "anonymous": false,
      "inputs": [
        {
          "indexed": false,
          "name": "winner",
          "type": "address"
        }
      ],
      "name": "GameOverWithWin",
      "type": "event"
    },
    {
      "anonymous": false,
      "inputs": [],
      "name": "GameOverWithDraw",
      "type": "event"
    },
    {
      "anonymous": false,
      "inputs": [
        {
          "indexed": false,
          "name": "receiver",
          "type": "address"
        },
        {
          "indexed": false,
          "name": "amountInWei",
          "type": "uint256"
        }
      ],
      "name": "PayoutSuccess",
      "type": "event"
    },
    {
      "anonymous": false,
      "inputs": [
        {
          "indexed": false,
          "name": "x",
          "type": "uint8"
        },
        {
          "indexed": false,
          "name": "y",
          "type": "uint8"
        }
      ],
      "name": "Ends",
      "type": "event"
    },
    {
      "constant": false,
      "inputs": [],
      "name": "joinGame",
      "outputs": [],
      "payable": true,
      "stateMutability": "payable",
      "type": "function"
    },
    {
      "constant": true,
      "inputs": [],
      "name": "getBoard",
      "outputs": [
        {
          "name": "",
          "type": "address[3][3]"
        }
      ],
      "payable": false,
      "stateMutability": "view",
      "type": "function"
    },
    {
      "constant": false,
      "inputs": [],
      "name": "withdrawWin",
      "outputs": [],
      "payable": false,
      "stateMutability": "nonpayable",
      "type": "function"
    },
    {
      "constant": false,
      "inputs": [],
      "name": "emergecyCashout",
      "outputs": [],
      "payable": false,
      "stateMutability": "nonpayable",
      "type": "function"
    },
    {
      "constant": false,
      "inputs": [
        {
          "name": "x",
          "type": "uint8"
        },
        {
          "name": "y",
          "type": "uint8"
        }
      ],
      "name": "setStone",
      "outputs": [],
      "payable": false,
      "stateMutability": "nonpayable",
      "type": "function"
    }
  ],
  "bytecode": "0x608060405260036000806101000a81548160ff021916908360ff16021790555060b4600e5533600a60006101000a81548173ffffffffffffffffffffffffffffffffffffffff021916908373ffffffffffffffffffffffffffffffffffffffff16021790555067016345785d8a0000341415156100e4576040517f08c379a000000000000000000000000000000000000000000000000000000000815260040180806020018281038252601b8152602001807f5375626d697420736f6d65206d6f6e65792c2061626f7274696e67000000000081525060200191505060405180910390fd5b600e544201600f81905550611773806100fe6000396000f3fe6080604052600436106100a4576000357c0100000000000000000000000000000000000000000000000000000000900463ffffffff1680633264a34b146100a957806359a5f12d1461011f5780637d3f9074146101765780637fdffd23146101c1578063c51d69f414610218578063cab896dc14610249578063d30895e414610274578063d4f77b1c146102cb578063ea40a2a2146102d5578063fb815503146102ec575b600080fd5b3480156100b557600080fd5b506100be610303565b604051808260036000925b8184101561010f5782846020020151600360200280838360005b838110156100fe5780820151818401526020810190506100e3565b5050505090500192600101926100c9565b9250505091505060405180910390f35b34801561012b57600080fd5b506101346103bc565b604051808273ffffffffffffffffffffffffffffffffffffffff1673ffffffffffffffffffffffffffffffffffffffff16815260200191505060405180910390f35b34801561018257600080fd5b506101bf6004803603604081101561019957600080fd5b81019080803560ff169060200190929190803560ff1690602001909291905050506103e2565b005b3480156101cd57600080fd5b506101d6610cd2565b604051808273ffffffffffffffffffffffffffffffffffffffff1673ffffffffffffffffffffffffffffffffffffffff16815260200191505060405180910390f35b34801561022457600080fd5b5061022d610cf8565b604051808260ff1660ff16815260200191505060405180910390f35b34801561025557600080fd5b5061025e610d0a565b6040518082815260200191505060405180910390f35b34801561028057600080fd5b50610289610d16565b604051808273ffffffffffffffffffffffffffffffffffffffff1673ffffffffffffffffffffffffffffffffffffffff16815260200191505060405180910390f35b6102d3610d3c565b005b3480156102e157600080fd5b506102ea611000565b005b3480156102f857600080fd5b50610301611035565b005b61030b6116f5565b6001600380602002604051908101604052809291906000905b828210156103b35783826003020160038060200260405190810160405280929190826003801561039f576020028201915b8160009054906101000a900473ffffffffffffffffffffffffffffffffffffffff1673ffffffffffffffffffffffffffffffffffffffff1681526020019060010190808311610355575b505050505081526020019060010190610324565b50505050905090565b600b60009054906101000a900473ffffffffffffffffffffffffffffffffffffffff1681565b600073ffffffffffffffffffffffffffffffffffffffff1660018360ff1660038110151561040c57fe5b600302018260ff1660038110151561042057fe5b0160009054906101000a900473ffffffffffffffffffffffffffffffffffffffff1673ffffffffffffffffffffffffffffffffffffffff1614151561046457600080fd5b42600f5411151561047457600080fd5b600060029054906101000a900460ff16151561048c57fe5b6000809054906101000a900460ff1660ff168260ff161015156104ab57fe5b6000809054906101000a900460ff1660ff168160ff161015156104ca57fe5b601060009054906101000a900473ffffffffffffffffffffffffffffffffffffffff1673ffffffffffffffffffffffffffffffffffffffff163373ffffffffffffffffffffffffffffffffffffffff1614151561052657600080fd5b3360018360ff1660038110151561053957fe5b600302018260ff1660038110151561054d57fe5b0160006101000a81548173ffffffffffffffffffffffffffffffffffffffff021916908373ffffffffffffffffffffffffffffffffffffffff1602179055506000600181819054906101000a900460ff168092919060010191906101000a81548160ff021916908360ff16021790555050600e544201600f8190555060008090505b6000809054906101000a900460ff1660ff168160ff16101561073657601060009054906101000a900473ffffffffffffffffffffffffffffffffffffffff1673ffffffffffffffffffffffffffffffffffffffff1660018260ff1660038110151561063657fe5b600302018360ff1660038110151561064a57fe5b0160009054906101000a900473ffffffffffffffffffffffffffffffffffffffff1673ffffffffffffffffffffffffffffffffffffffff1614151561068e57610736565b60016000809054906101000a900460ff160360ff168160ff161415610729577f94eb1c060d614d63f6a3d26d988406693529cc9a82fd4a40a410a6937e4961708383604051808360ff1660ff1681526020018260ff1660ff1681526020019250505060405180910390a1610723601060009054906101000a900473ffffffffffffffffffffffffffffffffffffffff166112be565b50610cce565b80806001019150506105cf565b5060008090505b6000809054906101000a900460ff1660ff1681101561085057601060009054906101000a900473ffffffffffffffffffffffffffffffffffffffff1673ffffffffffffffffffffffffffffffffffffffff1660018460ff166003811015156107a157fe5b60030201826003811015156107b257fe5b0160009054906101000a900473ffffffffffffffffffffffffffffffffffffffff1673ffffffffffffffffffffffffffffffffffffffff161415156107f657610850565b60016000809054906101000a900460ff160360ff168114156108435761083d601060009054906101000a900473ffffffffffffffffffffffffffffffffffffffff166112be565b50610cce565b808060010191505061073d565b508060ff168260ff1614156109775760008090505b6000809054906101000a900460ff1660ff1681101561097557601060009054906101000a900473ffffffffffffffffffffffffffffffffffffffff1673ffffffffffffffffffffffffffffffffffffffff166001826003811015156108c657fe5b60030201826003811015156108d757fe5b0160009054906101000a900473ffffffffffffffffffffffffffffffffffffffff1673ffffffffffffffffffffffffffffffffffffffff1614151561091b57610975565b60016000809054906101000a900460ff160360ff1681141561096857610962601060009054906101000a900473ffffffffffffffffffffffffffffffffffffffff166112be565b50610cce565b8080600101915050610865565b505b60016000809054906101000a900460ff160360ff1681830160ff161415610ac65760008090505b6000809054906101000a900460ff1660ff16811015610ac457601060009054906101000a900473ffffffffffffffffffffffffffffffffffffffff1673ffffffffffffffffffffffffffffffffffffffff166001826003811015156109ff57fe5b600302018260016000809054906101000a900460ff160360ff1603600381101515610a2657fe5b0160009054906101000a900473ffffffffffffffffffffffffffffffffffffffff1673ffffffffffffffffffffffffffffffffffffffff16141515610a6a57610ac4565b60016000809054906101000a900460ff160360ff16811415610ab757610ab1601060009054906101000a900473ffffffffffffffffffffffffffffffffffffffff166112be565b50610cce565b808060010191505061099e565b505b60026000809054906101000a900460ff1660ff160a60ff16600060019054906101000a900460ff1660ff161415610b0457610aff611478565b610cce565b600a60009054906101000a900473ffffffffffffffffffffffffffffffffffffffff1673ffffffffffffffffffffffffffffffffffffffff16601060009054906101000a900473ffffffffffffffffffffffffffffffffffffffff1673ffffffffffffffffffffffffffffffffffffffff161415610be457600b60009054906101000a900473ffffffffffffffffffffffffffffffffffffffff16601060006101000a81548173ffffffffffffffffffffffffffffffffffffffff021916908373ffffffffffffffffffffffffffffffffffffffff160217905550610c48565b600a60009054906101000a900473ffffffffffffffffffffffffffffffffffffffff16601060006101000a81548173ffffffffffffffffffffffffffffffffffffffff021916908373ffffffffffffffffffffffffffffffffffffffff1602179055505b7f637351f91da430278368fb3e486c8c3da47b2e6ce4d28b2c404cb044702ca7e1601060009054906101000a900473ffffffffffffffffffffffffffffffffffffffff16604051808273ffffffffffffffffffffffffffffffffffffffff1673ffffffffffffffffffffffffffffffffffffffff16815260200191505060405180910390a15b5050565b601060009054906101000a900473ffffffffffffffffffffffffffffffffffffffff1681565b6000809054906101000a900460ff1681565b67016345785d8a000081565b600a60009054906101000a900473ffffffffffffffffffffffffffffffffffffffff1681565b600073ffffffffffffffffffffffffffffffffffffffff16600b60009054906101000a900473ffffffffffffffffffffffffffffffffffffffff1673ffffffffffffffffffffffffffffffffffffffff16141515610d9657fe5b6001600060026101000a81548160ff02191690831515021790555067016345785d8a000034141515610dc757600080fd5b33600b60006101000a81548173ffffffffffffffffffffffffffffffffffffffff021916908373ffffffffffffffffffffffffffffffffffffffff1602179055507f31e760aa525306aba638a784082a013b6a1cc0a9a1789f3f22281c0453b10b1f600b60009054906101000a900473ffffffffffffffffffffffffffffffffffffffff16604051808273ffffffffffffffffffffffffffffffffffffffff1673ffffffffffffffffffffffffffffffffffffffff16815260200191505060405180910390a16000600243811515610e9b57fe5b061415610f0a57600b60009054906101000a900473ffffffffffffffffffffffffffffffffffffffff16601060006101000a81548173ffffffffffffffffffffffffffffffffffffffff021916908373ffffffffffffffffffffffffffffffffffffffff160217905550610f6e565b600a60009054906101000a900473ffffffffffffffffffffffffffffffffffffffff16601060006101000a81548173ffffffffffffffffffffffffffffffffffffffff021916908373ffffffffffffffffffffffffffffffffffffffff1602179055505b600e544201600f819055507f637351f91da430278368fb3e486c8c3da47b2e6ce4d28b2c404cb044702ca7e1601060009054906101000a900473ffffffffffffffffffffffffffffffffffffffff16604051808273ffffffffffffffffffffffffffffffffffffffff1673ffffffffffffffffffffffffffffffffffffffff16815260200191505060405180910390a1565b42600f5410151561101057600080fd5b600060029054906101000a900460ff16151561102b57600080fd5b611033611478565b565b6000600a60009054906101000a900473ffffffffffffffffffffffffffffffffffffffff1673ffffffffffffffffffffffffffffffffffffffff163373ffffffffffffffffffffffffffffffffffffffff1614156111a6576000600c5411151561109e57600080fd5b600c5490506000600c81905550600a60009054906101000a900473ffffffffffffffffffffffffffffffffffffffff1673ffffffffffffffffffffffffffffffffffffffff166108fc829081150290604051600060405180830381858888f19350505050158015611113573d6000803e3d6000fd5b507f2a44162a2d5223e37cacacc3f626dcfee1396e0be3616534c5c7b718f786b673600a60009054906101000a900473ffffffffffffffffffffffffffffffffffffffff1682604051808373ffffffffffffffffffffffffffffffffffffffff1673ffffffffffffffffffffffffffffffffffffffff1681526020018281526020019250505060405180910390a16112bb565b6000600d541115156111b757600080fd5b600d5490506000600d81905550600b60009054906101000a900473ffffffffffffffffffffffffffffffffffffffff1673ffffffffffffffffffffffffffffffffffffffff166108fc829081150290604051600060405180830381858888f1935050505015801561122c573d6000803e3d6000fd5b507f2a44162a2d5223e37cacacc3f626dcfee1396e0be3616534c5c7b718f786b673600b60009054906101000a900473ffffffffffffffffffffffffffffffffffffffff1682604051808373ffffffffffffffffffffffffffffffffffffffff1673ffffffffffffffffffffffffffffffffffffffff1681526020018281526020019250505060405180910390a15b50565b60008060026101000a81548160ff0219169083151502179055507f8245a3876d42d9b0bdb7f24184c03fc24e3d8a079f492b1ec9ceae70b366edf981604051808273ffffffffffffffffffffffffffffffffffffffff1673ffffffffffffffffffffffffffffffffffffffff16815260200191505060405180910390a160003073ffffffffffffffffffffffffffffffffffffffff16319050600115158273ffffffffffffffffffffffffffffffffffffffff166108fc839081150290604051600060405180830381858888f19350505050151514151561140857600a60009054906101000a900473ffffffffffffffffffffffffffffffffffffffff1673ffffffffffffffffffffffffffffffffffffffff168273ffffffffffffffffffffffffffffffffffffffff1614156113fb5780600c81905550611403565b80600d819055505b611474565b7f2a44162a2d5223e37cacacc3f626dcfee1396e0be3616534c5c7b718f786b6738282604051808373ffffffffffffffffffffffffffffffffffffffff1673ffffffffffffffffffffffffffffffffffffffff1681526020018281526020019250505060405180910390a15b5050565b60008060026101000a81548160ff0219169083151502179055507f2207d46a2ba0f2acda06e9a222b40fd004e385738b3f868e63b2c0bfe4bc094c60405160405180910390a1600060023073ffffffffffffffffffffffffffffffffffffffff16318115156114e357fe5b04905060001515600a60009054906101000a900473ffffffffffffffffffffffffffffffffffffffff1673ffffffffffffffffffffffffffffffffffffffff166108fc839081150290604051600060405180830381858888f193505050501515141561155e5780600c600082825401925050819055506115ec565b7f2a44162a2d5223e37cacacc3f626dcfee1396e0be3616534c5c7b718f786b673600a60009054906101000a900473ffffffffffffffffffffffffffffffffffffffff1682604051808373ffffffffffffffffffffffffffffffffffffffff1673ffffffffffffffffffffffffffffffffffffffff1681526020018281526020019250505060405180910390a15b60001515600b60009054906101000a900473ffffffffffffffffffffffffffffffffffffffff1673ffffffffffffffffffffffffffffffffffffffff166108fc839081150290604051600060405180830381858888f19350505050151514156116645780600d600082825401925050819055506116f2565b7f2a44162a2d5223e37cacacc3f626dcfee1396e0be3616534c5c7b718f786b673600b60009054906101000a900473ffffffffffffffffffffffffffffffffffffffff1682604051808373ffffffffffffffffffffffffffffffffffffffff1673ffffffffffffffffffffffffffffffffffffffff1681526020018281526020019250505060405180910390a15b50565b610120604051908101604052806003905b61170e611724565b8152602001906001900390816117065790505090565b60606040519081016040528060039060208202803883398082019150509050509056fea165627a7a72305820e5c3fcedb1fc1eae99c89134a27cfc0fac70a6437f4f8c10fc5209f5b5f928890029",
  "source": "pragma solidity ^0.5.0;\n\ncontract TicTacToe {\n    uint constant public gameCost = 0.1 ether;\n\n    uint8 public boardSize = 3;\n    uint8 movesCounter;\n\n    bool gameActive;\n\n    address[3][3] board;\n\n    address payable public player1;\n    address payable public player2;\n\n    uint balanceToWithdrawPlayer1;\n    uint balanceToWithdrawPlayer2;\n\n    uint timeToReact = 3 minutes;\n    uint gameValidUntil;\n\n    address payable public activePlayer;\n\n    event PlayerJoined(address player);\n    event NextPlayer(address player);\n    event GameOverWithWin(address winner);\n    event GameOverWithDraw();\n    event PayoutSuccess(address receiver, uint amountInWei);\n    event Ends(uint8 x, uint8 y);\n\n    constructor() public payable {\n        player1 = msg.sender;\n        require(msg.value == gameCost, \"Submit some money, aborting\");\n        gameValidUntil = now+timeToReact;\n    }\n\n    function joinGame() public payable {\n        assert(player2 == address(0));\n        gameActive = true;\n\n        require(msg.value == gameCost);\n\n        player2 = msg.sender;\n        emit PlayerJoined(player2);\n        if(block.number % 2 == 0) {\n            activePlayer = player2;\n        } else {\n            activePlayer = player1;\n        }\n\n        gameValidUntil = now + timeToReact;\n\n        emit NextPlayer(activePlayer);\n    }\n\n    function getBoard() public view returns(address[3][3] memory) {\n        return board;\n    }\n\n    function setWinner(address payable player) private {\n        gameActive = false;\n        //emit an event\n        emit GameOverWithWin(player);\n        uint balanceToPayOut = address(this).balance;\n         /**\n        * In Real-World application consider removing the player.send part completely and let the player\n        * Withdraw the money later on!\n         */\n        if(player.send(balanceToPayOut) != true) {\n            if(player == player1) {\n                balanceToWithdrawPlayer1 = balanceToPayOut;\n            } else {\n                balanceToWithdrawPlayer2 = balanceToPayOut;\n            }\n        } else {\n            emit PayoutSuccess(player, balanceToPayOut);\n        }\n        //transfer money to the winner\n    }\n\n    function withdrawWin() public {\n      uint balanceToTransfer;\n        if(msg.sender == player1) {\n            require(balanceToWithdrawPlayer1 > 0);\n            balanceToTransfer = balanceToWithdrawPlayer1;\n            balanceToWithdrawPlayer1 = 0;\n            player1.transfer(balanceToTransfer);\n\n            emit PayoutSuccess(player1, balanceToTransfer);\n        } else {\n\n            require(balanceToWithdrawPlayer2 > 0);\n            balanceToTransfer = balanceToWithdrawPlayer2;\n            balanceToWithdrawPlayer2 = 0;\n            player2.transfer(balanceToTransfer);\n            emit PayoutSuccess(player2, balanceToTransfer);\n        }\n    }\n\n    function setDraw() private {\n        gameActive = false;\n        emit GameOverWithDraw();\n\n        uint balanceToPayOut = address(this).balance/2;\n\n        if(player1.send(balanceToPayOut) == false) {\n            balanceToWithdrawPlayer1 += balanceToPayOut;\n        } else {\n            emit PayoutSuccess(player1, balanceToPayOut);\n        }\n        if(player2.send(balanceToPayOut) == false) {\n            balanceToWithdrawPlayer2 += balanceToPayOut;\n        } else {\n            emit PayoutSuccess(player2, balanceToPayOut);\n        }\n\n    }\n\n    function emergecyCashout() public {\n        require(gameValidUntil < now);\n        require(gameActive);\n        setDraw();\n    }\n\n\n    function setStone(uint8 x, uint8 y) public {\n        require(board[x][y] == address(0));\n        require(gameValidUntil > now);\n        assert(gameActive);\n        assert(x < boardSize);\n        assert(y < boardSize);\n        require(msg.sender == activePlayer);\n        board[x][y] = msg.sender;\n        movesCounter++;\n        gameValidUntil = now + timeToReact;\n        for(uint8 i = 0; i < boardSize; i++) {\n            if(board[i][y] != activePlayer) {\n                break;\n            }\n            //win\n            if(i == boardSize - 1) {\n                //winner\n                emit Ends(x,y);   \n                setWinner(activePlayer);\n                return;\n            }\n        }\n        for(uint i = 0; i < boardSize; i++) {\n            if(board[x][i] != activePlayer) {\n                break;\n            }\n            //win\n\n            if(i == boardSize - 1) {\n                //winner\n                setWinner(activePlayer);\n                return;\n            }\n        }\n\n        //diagonale\n        if(x == y) {\n            for(uint i = 0; i < boardSize; i++) {\n                if(board[i][i] != activePlayer) {\n                    break;\n                }\n                //win\n                if(i == boardSize - 1) {\n                    //winner\n                    setWinner(activePlayer);\n                    return;\n                }\n            }\n        }\n\n        //anti-diagonale\n        if((x+y) == boardSize-1) {\n            for(uint i = 0; i < boardSize; i++) {\n                if(board[i][(boardSize-1)-i] != activePlayer) {\n                    break;\n                }\n                //win\n\n                if(i == boardSize - 1) {\n                    //winner\n                    setWinner(activePlayer);\n                    return;\n                }\n            }\n        }\n\n        //draw\n        if(movesCounter == (boardSize**2)) {\n            //draw\n            setDraw();\n            return;\n        }\n\n        if(activePlayer == player1) {\n            activePlayer = player2;\n        } else {\n            activePlayer = player1;\n        }\n        emit NextPlayer(activePlayer);\n    }\n}\n",
  "sourcePath": "C:/Users/neel limbachiya/Desktop/blocktactoe-master/contracts/TicTacToe.sol",
  "compiler": {
    "name": "solc",
    "version": "0.5.0+commit.1d4f565a.Emscripten.clang"
  },
  "schemaVersion": "3.0.2",
  "updatedAt": "2019-03-22T10:41:21.061Z",
  "devdoc": {
    "methods": {}
  },
  "userdoc": {
    "methods": {}
  }
}