{
  "contractName": "TicTacToe",
  "abi": [
    {
      "constant": true,
      "inputs": [],
      "name": "player2",
      "outputs": [
        {
          "name": "",
          "type": "address"
        }
      ],
      "payable": false,
      "stateMutability": "view",
      "type": "function"
    },
    {
      "constant": true,
      "inputs": [],
      "name": "boardSize",
      "outputs": [
        {
          "name": "",
          "type": "uint8"
        }
      ],
      "payable": false,
      "stateMutability": "view",
      "type": "function"
    },
    {
      "constant": true,
      "inputs": [],
      "name": "gameCost",
      "outputs": [
        {
          "name": "",
          "type": "uint256"
        }
      ],
      "payable": false,
      "stateMutability": "view",
      "type": "function"
    },
    {
      "constant": true,
      "inputs": [],
      "name": "player1",
      "outputs": [
        {
          "name": "",
          "type": "address"
        }
      ],
      "payable": false,
      "stateMutability": "view",
      "type": "function"
    },
    {
      "inputs": [],
      "payable": true,
      "stateMutability": "payable",
      "type": "constructor"
    },
    {
      "anonymous": false,
      "inputs": [
        {
          "indexed": false,
          "name": "player",
          "type": "address"
        }
      ],
      "name": "PlayerJoined",
      "type": "event"
    },
    {
      "anonymous": false,
      "inputs": [
        {
          "indexed": false,
          "name": "player",
          "type": "address"
        }
      ],
      "name": "NextPlayer",
      "type": "event"
    },
    {
      "anonymous": false,
      "inputs": [
        {
          "indexed": false,
          "name": "winner",
          "type": "address"
        }
      ],
      "name": "GameOverWithWin",
      "type": "event"
    },
    {
      "anonymous": false,
      "inputs": [],
      "name": "GameOverWithDraw",
      "type": "event"
    },
    {
      "anonymous": false,
      "inputs": [
        {
          "indexed": false,
          "name": "receiver",
          "type": "address"
        },
        {
          "indexed": false,
          "name": "amountInWei",
          "type": "uint256"
        }
      ],
      "name": "PayoutSuccess",
      "type": "event"
    },
    {
      "anonymous": false,
      "inputs": [],
      "name": "Ends",
      "type": "event"
    },
    {
      "constant": false,
      "inputs": [],
      "name": "joinGame",
      "outputs": [],
      "payable": true,
      "stateMutability": "payable",
      "type": "function"
    },
    {
      "constant": true,
      "inputs": [],
      "name": "getBoard",
      "outputs": [
        {
          "name": "",
          "type": "address[3][3]"
        }
      ],
      "payable": false,
      "stateMutability": "view",
      "type": "function"
    },
    {
      "constant": false,
      "inputs": [],
      "name": "withdrawWin",
      "outputs": [],
      "payable": false,
      "stateMutability": "nonpayable",
      "type": "function"
    },
    {
      "constant": false,
      "inputs": [],
      "name": "emergecyCashout",
      "outputs": [],
      "payable": false,
      "stateMutability": "nonpayable",
      "type": "function"
    },
    {
      "constant": false,
      "inputs": [
        {
          "name": "x",
          "type": "uint8"
        },
        {
          "name": "y",
          "type": "uint8"
        }
      ],
      "name": "setStone",
      "outputs": [],
      "payable": false,
      "stateMutability": "nonpayable",
      "type": "function"
    }
  ],
  "bytecode": "0x608060405260036000806101000a81548160ff021916908360ff16021790555060b4600e5533600a60006101000a81548173ffffffffffffffffffffffffffffffffffffffff021916908373ffffffffffffffffffffffffffffffffffffffff16021790555067016345785d8a0000341415156100e4576040517f08c379a000000000000000000000000000000000000000000000000000000000815260040180806020018281038252601b8152602001807f5375626d697420736f6d65206d6f6e65792c2061626f7274696e67000000000081525060200191505060405180910390fd5b600e544201600f819055506116a1806100fe6000396000f3fe608060405260043610610099576000357c0100000000000000000000000000000000000000000000000000000000900463ffffffff1680633264a34b1461009e57806359a5f12d146101145780637d3f90741461016b578063c51d69f4146101b6578063cab896dc146101e7578063d30895e414610212578063d4f77b1c14610269578063ea40a2a214610273578063fb8155031461028a575b600080fd5b3480156100aa57600080fd5b506100b36102a1565b604051808260036000925b818410156101045782846020020151600360200280838360005b838110156100f35780820151818401526020810190506100d8565b5050505090500192600101926100be565b9250505091505060405180910390f35b34801561012057600080fd5b5061012961035a565b604051808273ffffffffffffffffffffffffffffffffffffffff1673ffffffffffffffffffffffffffffffffffffffff16815260200191505060405180910390f35b34801561017757600080fd5b506101b46004803603604081101561018e57600080fd5b81019080803560ff169060200190929190803560ff169060200190929190505050610380565b005b3480156101c257600080fd5b506101cb610c26565b604051808260ff1660ff16815260200191505060405180910390f35b3480156101f357600080fd5b506101fc610c38565b6040518082815260200191505060405180910390f35b34801561021e57600080fd5b50610227610c44565b604051808273ffffffffffffffffffffffffffffffffffffffff1673ffffffffffffffffffffffffffffffffffffffff16815260200191505060405180910390f35b610271610c6a565b005b34801561027f57600080fd5b50610288610f2e565b005b34801561029657600080fd5b5061029f610f63565b005b6102a9611623565b6001600380602002604051908101604052809291906000905b828210156103515783826003020160038060200260405190810160405280929190826003801561033d576020028201915b8160009054906101000a900473ffffffffffffffffffffffffffffffffffffffff1673ffffffffffffffffffffffffffffffffffffffff16815260200190600101908083116102f3575b5050505050815260200190600101906102c2565b50505050905090565b600b60009054906101000a900473ffffffffffffffffffffffffffffffffffffffff1681565b600073ffffffffffffffffffffffffffffffffffffffff1660018360ff166003811015156103aa57fe5b600302018260ff166003811015156103be57fe5b0160009054906101000a900473ffffffffffffffffffffffffffffffffffffffff1673ffffffffffffffffffffffffffffffffffffffff1614151561040257600080fd5b42600f5411151561041257600080fd5b600060029054906101000a900460ff16151561042a57fe5b6000809054906101000a900460ff1660ff168260ff1610151561044957fe5b6000809054906101000a900460ff1660ff168160ff1610151561046857fe5b601060009054906101000a900473ffffffffffffffffffffffffffffffffffffffff1673ffffffffffffffffffffffffffffffffffffffff163373ffffffffffffffffffffffffffffffffffffffff161415156104c457600080fd5b3360018360ff166003811015156104d757fe5b600302018260ff166003811015156104eb57fe5b0160006101000a81548173ffffffffffffffffffffffffffffffffffffffff021916908373ffffffffffffffffffffffffffffffffffffffff1602179055506000600181819054906101000a900460ff168092919060010191906101000a81548160ff021916908360ff16021790555050600e544201600f8190555060008090505b6000809054906101000a900460ff1660ff168160ff16101561068a57601060009054906101000a900473ffffffffffffffffffffffffffffffffffffffff1673ffffffffffffffffffffffffffffffffffffffff1660018260ff166003811015156105d457fe5b600302018360ff166003811015156105e857fe5b0160009054906101000a900473ffffffffffffffffffffffffffffffffffffffff1673ffffffffffffffffffffffffffffffffffffffff1614151561062c5761068a565b60016000809054906101000a900460ff160360ff168160ff16141561067d577f453cd9e78414269a568f111986a9f6e54a14a5efd9028674663e62634d03489160405160405180910390a150610c22565b808060010191505061056d565b5060008090505b6000809054906101000a900460ff1660ff168110156107a457601060009054906101000a900473ffffffffffffffffffffffffffffffffffffffff1673ffffffffffffffffffffffffffffffffffffffff1660018460ff166003811015156106f557fe5b600302018260038110151561070657fe5b0160009054906101000a900473ffffffffffffffffffffffffffffffffffffffff1673ffffffffffffffffffffffffffffffffffffffff1614151561074a576107a4565b60016000809054906101000a900460ff160360ff1681141561079757610791601060009054906101000a900473ffffffffffffffffffffffffffffffffffffffff166111ec565b50610c22565b8080600101915050610691565b508060ff168260ff1614156108cb5760008090505b6000809054906101000a900460ff1660ff168110156108c957601060009054906101000a900473ffffffffffffffffffffffffffffffffffffffff1673ffffffffffffffffffffffffffffffffffffffff1660018260038110151561081a57fe5b600302018260038110151561082b57fe5b0160009054906101000a900473ffffffffffffffffffffffffffffffffffffffff1673ffffffffffffffffffffffffffffffffffffffff1614151561086f576108c9565b60016000809054906101000a900460ff160360ff168114156108bc576108b6601060009054906101000a900473ffffffffffffffffffffffffffffffffffffffff166111ec565b50610c22565b80806001019150506107b9565b505b60016000809054906101000a900460ff160360ff1681830160ff161415610a1a5760008090505b6000809054906101000a900460ff1660ff16811015610a1857601060009054906101000a900473ffffffffffffffffffffffffffffffffffffffff1673ffffffffffffffffffffffffffffffffffffffff1660018260038110151561095357fe5b600302018260016000809054906101000a900460ff160360ff160360038110151561097a57fe5b0160009054906101000a900473ffffffffffffffffffffffffffffffffffffffff1673ffffffffffffffffffffffffffffffffffffffff161415156109be57610a18565b60016000809054906101000a900460ff160360ff16811415610a0b57610a05601060009054906101000a900473ffffffffffffffffffffffffffffffffffffffff166111ec565b50610c22565b80806001019150506108f2565b505b60026000809054906101000a900460ff1660ff160a60ff16600060019054906101000a900460ff1660ff161415610a5857610a536113a6565b610c22565b600a60009054906101000a900473ffffffffffffffffffffffffffffffffffffffff1673ffffffffffffffffffffffffffffffffffffffff16601060009054906101000a900473ffffffffffffffffffffffffffffffffffffffff1673ffffffffffffffffffffffffffffffffffffffff161415610b3857600b60009054906101000a900473ffffffffffffffffffffffffffffffffffffffff16601060006101000a81548173ffffffffffffffffffffffffffffffffffffffff021916908373ffffffffffffffffffffffffffffffffffffffff160217905550610b9c565b600a60009054906101000a900473ffffffffffffffffffffffffffffffffffffffff16601060006101000a81548173ffffffffffffffffffffffffffffffffffffffff021916908373ffffffffffffffffffffffffffffffffffffffff1602179055505b7f637351f91da430278368fb3e486c8c3da47b2e6ce4d28b2c404cb044702ca7e1601060009054906101000a900473ffffffffffffffffffffffffffffffffffffffff16604051808273ffffffffffffffffffffffffffffffffffffffff1673ffffffffffffffffffffffffffffffffffffffff16815260200191505060405180910390a15b5050565b6000809054906101000a900460ff1681565b67016345785d8a000081565b600a60009054906101000a900473ffffffffffffffffffffffffffffffffffffffff1681565b600073ffffffffffffffffffffffffffffffffffffffff16600b60009054906101000a900473ffffffffffffffffffffffffffffffffffffffff1673ffffffffffffffffffffffffffffffffffffffff16141515610cc457fe5b6001600060026101000a81548160ff02191690831515021790555067016345785d8a000034141515610cf557600080fd5b33600b60006101000a81548173ffffffffffffffffffffffffffffffffffffffff021916908373ffffffffffffffffffffffffffffffffffffffff1602179055507f31e760aa525306aba638a784082a013b6a1cc0a9a1789f3f22281c0453b10b1f600b60009054906101000a900473ffffffffffffffffffffffffffffffffffffffff16604051808273ffffffffffffffffffffffffffffffffffffffff1673ffffffffffffffffffffffffffffffffffffffff16815260200191505060405180910390a16000600243811515610dc957fe5b061415610e3857600b60009054906101000a900473ffffffffffffffffffffffffffffffffffffffff16601060006101000a81548173ffffffffffffffffffffffffffffffffffffffff021916908373ffffffffffffffffffffffffffffffffffffffff160217905550610e9c565b600a60009054906101000a900473ffffffffffffffffffffffffffffffffffffffff16601060006101000a81548173ffffffffffffffffffffffffffffffffffffffff021916908373ffffffffffffffffffffffffffffffffffffffff1602179055505b600e544201600f819055507f637351f91da430278368fb3e486c8c3da47b2e6ce4d28b2c404cb044702ca7e1601060009054906101000a900473ffffffffffffffffffffffffffffffffffffffff16604051808273ffffffffffffffffffffffffffffffffffffffff1673ffffffffffffffffffffffffffffffffffffffff16815260200191505060405180910390a1565b42600f54101515610f3e57600080fd5b600060029054906101000a900460ff161515610f5957600080fd5b610f616113a6565b565b6000600a60009054906101000a900473ffffffffffffffffffffffffffffffffffffffff1673ffffffffffffffffffffffffffffffffffffffff163373ffffffffffffffffffffffffffffffffffffffff1614156110d4576000600c54111515610fcc57600080fd5b600c5490506000600c81905550600a60009054906101000a900473ffffffffffffffffffffffffffffffffffffffff1673ffffffffffffffffffffffffffffffffffffffff166108fc829081150290604051600060405180830381858888f19350505050158015611041573d6000803e3d6000fd5b507f2a44162a2d5223e37cacacc3f626dcfee1396e0be3616534c5c7b718f786b673600a60009054906101000a900473ffffffffffffffffffffffffffffffffffffffff1682604051808373ffffffffffffffffffffffffffffffffffffffff1673ffffffffffffffffffffffffffffffffffffffff1681526020018281526020019250505060405180910390a16111e9565b6000600d541115156110e557600080fd5b600d5490506000600d81905550600b60009054906101000a900473ffffffffffffffffffffffffffffffffffffffff1673ffffffffffffffffffffffffffffffffffffffff166108fc829081150290604051600060405180830381858888f1935050505015801561115a573d6000803e3d6000fd5b507f2a44162a2d5223e37cacacc3f626dcfee1396e0be3616534c5c7b718f786b673600b60009054906101000a900473ffffffffffffffffffffffffffffffffffffffff1682604051808373ffffffffffffffffffffffffffffffffffffffff1673ffffffffffffffffffffffffffffffffffffffff1681526020018281526020019250505060405180910390a15b50565b60008060026101000a81548160ff0219169083151502179055507f8245a3876d42d9b0bdb7f24184c03fc24e3d8a079f492b1ec9ceae70b366edf981604051808273ffffffffffffffffffffffffffffffffffffffff1673ffffffffffffffffffffffffffffffffffffffff16815260200191505060405180910390a160003073ffffffffffffffffffffffffffffffffffffffff16319050600115158273ffffffffffffffffffffffffffffffffffffffff166108fc839081150290604051600060405180830381858888f19350505050151514151561133657600a60009054906101000a900473ffffffffffffffffffffffffffffffffffffffff1673ffffffffffffffffffffffffffffffffffffffff168273ffffffffffffffffffffffffffffffffffffffff1614156113295780600c81905550611331565b80600d819055505b6113a2565b7f2a44162a2d5223e37cacacc3f626dcfee1396e0be3616534c5c7b718f786b6738282604051808373ffffffffffffffffffffffffffffffffffffffff1673ffffffffffffffffffffffffffffffffffffffff1681526020018281526020019250505060405180910390a15b5050565b60008060026101000a81548160ff0219169083151502179055507f2207d46a2ba0f2acda06e9a222b40fd004e385738b3f868e63b2c0bfe4bc094c60405160405180910390a1600060023073ffffffffffffffffffffffffffffffffffffffff163181151561141157fe5b04905060001515600a60009054906101000a900473ffffffffffffffffffffffffffffffffffffffff1673ffffffffffffffffffffffffffffffffffffffff166108fc839081150290604051600060405180830381858888f193505050501515141561148c5780600c6000828254019250508190555061151a565b7f2a44162a2d5223e37cacacc3f626dcfee1396e0be3616534c5c7b718f786b673600a60009054906101000a900473ffffffffffffffffffffffffffffffffffffffff1682604051808373ffffffffffffffffffffffffffffffffffffffff1673ffffffffffffffffffffffffffffffffffffffff1681526020018281526020019250505060405180910390a15b60001515600b60009054906101000a900473ffffffffffffffffffffffffffffffffffffffff1673ffffffffffffffffffffffffffffffffffffffff166108fc839081150290604051600060405180830381858888f19350505050151514156115925780600d60008282540192505081905550611620565b7f2a44162a2d5223e37cacacc3f626dcfee1396e0be3616534c5c7b718f786b673600b60009054906101000a900473ffffffffffffffffffffffffffffffffffffffff1682604051808373ffffffffffffffffffffffffffffffffffffffff1673ffffffffffffffffffffffffffffffffffffffff1681526020018281526020019250505060405180910390a15b50565b610120604051908101604052806003905b61163c611652565b8152602001906001900390816116345790505090565b60606040519081016040528060039060208202803883398082019150509050509056fea165627a7a7230582056864918bc1d9b2d599dcd03b8e851884f8c7418b5191c3ecd4789a83ffb33650029",
  "source": "pragma solidity ^0.5.0;\n\ncontract TicTacToe {\n    uint constant public gameCost = 0.1 ether;\n\n    uint8 public boardSize = 3;\n    uint8 movesCounter;\n\n    bool gameActive;\n\n    address[3][3] board;\n\n    address payable public player1;\n    address payable public player2;\n\n    uint balanceToWithdrawPlayer1;\n    uint balanceToWithdrawPlayer2;\n\n    uint timeToReact = 3 minutes;\n    uint gameValidUntil;\n\n    address payable activePlayer;\n\n    event PlayerJoined(address player);\n    event NextPlayer(address player);\n    event GameOverWithWin(address winner);\n    event GameOverWithDraw();\n    event PayoutSuccess(address receiver, uint amountInWei);\n    event Ends();\n\n    constructor() public payable {\n        player1 = msg.sender;\n        require(msg.value == gameCost, \"Submit some money, aborting\");\n        gameValidUntil = now+timeToReact;\n    }\n\n    function joinGame() public payable {\n        assert(player2 == address(0));\n        gameActive = true;\n\n        require(msg.value == gameCost);\n\n        player2 = msg.sender;\n        emit PlayerJoined(player2);\n        if(block.number % 2 == 0) {\n            activePlayer = player2;\n        } else {\n            activePlayer = player1;\n        }\n\n        gameValidUntil = now + timeToReact;\n\n        emit NextPlayer(activePlayer);\n    }\n\n    function getBoard() public view returns(address[3][3] memory) {\n        return board;\n    }\n\n    function setWinner(address payable player) private {\n        gameActive = false;\n        //emit an event\n        emit GameOverWithWin(player);\n        uint balanceToPayOut = address(this).balance;\n         /**\n        * In Real-World application consider removing the player.send part completely and let the player\n        * Withdraw the money later on!\n         */\n        if(player.send(balanceToPayOut) != true) {\n            if(player == player1) {\n                balanceToWithdrawPlayer1 = balanceToPayOut;\n            } else {\n                balanceToWithdrawPlayer2 = balanceToPayOut;\n            }\n        } else {\n            emit PayoutSuccess(player, balanceToPayOut);\n        }\n        //transfer money to the winner\n    }\n\n    function withdrawWin() public {\n      uint balanceToTransfer;\n        if(msg.sender == player1) {\n            require(balanceToWithdrawPlayer1 > 0);\n            balanceToTransfer = balanceToWithdrawPlayer1;\n            balanceToWithdrawPlayer1 = 0;\n            player1.transfer(balanceToTransfer);\n\n            emit PayoutSuccess(player1, balanceToTransfer);\n        } else {\n\n            require(balanceToWithdrawPlayer2 > 0);\n            balanceToTransfer = balanceToWithdrawPlayer2;\n            balanceToWithdrawPlayer2 = 0;\n            player2.transfer(balanceToTransfer);\n            emit PayoutSuccess(player2, balanceToTransfer);\n        }\n    }\n\n    function setDraw() private {\n        gameActive = false;\n        emit GameOverWithDraw();\n\n        uint balanceToPayOut = address(this).balance/2;\n\n        if(player1.send(balanceToPayOut) == false) {\n            balanceToWithdrawPlayer1 += balanceToPayOut;\n        } else {\n            emit PayoutSuccess(player1, balanceToPayOut);\n        }\n        if(player2.send(balanceToPayOut) == false) {\n            balanceToWithdrawPlayer2 += balanceToPayOut;\n        } else {\n            emit PayoutSuccess(player2, balanceToPayOut);\n        }\n\n    }\n\n    function emergecyCashout() public {\n        require(gameValidUntil < now);\n        require(gameActive);\n        setDraw();\n    }\n\n\n    function setStone(uint8 x, uint8 y) public {\n        require(board[x][y] == address(0));\n        require(gameValidUntil > now);\n        assert(gameActive);\n        assert(x < boardSize);\n        assert(y < boardSize);\n        require(msg.sender == activePlayer);\n        board[x][y] = msg.sender;\n        movesCounter++;\n        gameValidUntil = now + timeToReact;\n\n        for(uint8 i = 0; i < boardSize; i++) {\n            if(board[i][y] != activePlayer) {\n                break;\n            }\n            //win\n            if(i == boardSize - 1) {\n                //winner\n                emit Ends();\n                /*setWinner(activePlayer);*/\n                return;\n            }\n        }\n        for(uint i = 0; i < boardSize; i++) {\n            if(board[x][i] != activePlayer) {\n                break;\n            }\n            //win\n\n            if(i == boardSize - 1) {\n                //winner\n                setWinner(activePlayer);\n                return;\n            }\n        }\n\n        //diagonale\n        if(x == y) {\n            for(uint i = 0; i < boardSize; i++) {\n                if(board[i][i] != activePlayer) {\n                    break;\n                }\n                //win\n                if(i == boardSize - 1) {\n                    //winner\n                    setWinner(activePlayer);\n                    return;\n                }\n            }\n        }\n\n        //anti-diagonale\n        if((x+y) == boardSize-1) {\n            for(uint i = 0; i < boardSize; i++) {\n                if(board[i][(boardSize-1)-i] != activePlayer) {\n                    break;\n                }\n                //win\n\n                if(i == boardSize - 1) {\n                    //winner\n                    setWinner(activePlayer);\n                    return;\n                }\n            }\n        }\n\n        //draw\n        if(movesCounter == (boardSize**2)) {\n            //draw\n            setDraw();\n            return;\n        }\n\n        if(activePlayer == player1) {\n            activePlayer = player2;\n        } else {\n            activePlayer = player1;\n        }\n        emit NextPlayer(activePlayer);\n    }\n}\n",
  "sourcePath": "C:/Users/neel limbachiya/Desktop/blocktactoe-master/contracts/TicTacToe.sol",
  "compiler": {
    "name": "solc",
    "version": "0.5.0+commit.1d4f565a.Emscripten.clang"
  },
  "schemaVersion": "3.0.2",
  "updatedAt": "2019-03-19T05:37:18.211Z",
  "devdoc": {
    "methods": {}
  },
  "userdoc": {
    "methods": {}
  }
}